:1000000012C021C003C11FC01EC01DC01CC01BC028
:100010001AC019C018C017C016C015C014C013C02C
:1000200012C011C010C011241FBECFE5D2E0DEBF48
:10003000CDBF20E0A0E6B0E001C01D92AB36B20714
:10004000E1F7FCD0C0C2DCCF98E087FF02C0C09AC5
:1000500001C0C098C29822E02A95F1F700C0880F2D
:10006000C29A915091F70895282F98E080E08695E4
:1000700020FF02C0C09A01C0C098C29832E03A95F1
:10008000F1F700C0B19980682695C29A915079F72E
:1000900095E39A95F1F70000C09A0895C59881E01C
:1000A000E3DF83E4E1DF80E0DFDF81E0DDDF80E0CC
:1000B000DBDFC59A0895C59881E0D6DF83E4D4DFFD
:1000C00080E0D2DF80E0D0DF8AE5CEDF8AE5CCDFDA
:1000D0008AE5CADF8AE5C8DF8AE5C6DFC59A0895E2
:1000E000C59881E0C1DF84E4BFDF80E0BDDF81E04F
:1000F000BBDF83E0B9DF80E0B7DF80E0B5DF80E021
:10010000B3DF80E0B1DFC59A0895C59881E0ACDF28
:1001100082E4AADF80936A0080E0A6DF80916A0013
:10012000807F8037C9F480E09FDF8093650080E0A6
:100130009BDF8093670080E097DF8093630080E01F
:1001400093DF8093600080E08FDF8093680080E021
:100150008BDF809361000CC080E086DF80E084DF6D
:1001600080E082DF80E080DF80E07EDF80E07CDF97
:10017000C59A0895CF93DF931F92CDB7DEB7C3988A
:100180008F5E698361DF6981862F5EDFC39A0F907E
:10019000DF91CF91089510926A0080916A008337B1
:1001A000E9F062E381E0E6DF79DF8FEC97E0019729
:1001B000F1F700C0000094DF8FE19EE40197F1F7B2
:1001C00000C0000078DF8FE19EE40197F1F700C0E6
:1001D00000009BDF60E581E0CDDFDFCF66E981E0F5
:1001E000C9CFCF93DF931F92CDB7DEB7C4988F5E90
:1001F00069832ADF6981862F27DFC49A0F90DF91F8
:10020000CF910895861708F4862F08951F920F92B4
:100210000FB60F9211248F939F93CC9905C09AB378
:1002200080916900892B02C08AB38F718ABB9F912C
:100230008F910F900FBE0F901F901895B89ABA9A91
:10024000BB9ABC9ABD9AD09AD19AD29AD39AB998AD
:10025000C19AD498DC9AD598D698D798DD98DE982C
:10026000DF98C39AC49AC59AC698D89AD99ADA9A46
:10027000DB9AC29A10926400109269008FEF80930B
:100280006500809367001092660083B5806183BD2E
:100290008BB780628BBF78947EDFD12CFF24F394E0
:1002A000C4E1D0E000E8B2E0EB2E2FDF1091650052
:1002B00011701F2580916400813009F4DCC0C8F101
:1002C000823009F010C18091630090E0805891095C
:1002D00044E0880F991F4A95E1F7BE014DD16A5855
:1002E00080E048DF8091600090E08058910961E1F2
:1002F00070E031D1BE0140D16A5881E03BDF80918E
:10030000680090E08058910954E0880F991F5A9531
:10031000E1F7BE0131D16A5880E063DF809161006E
:1003200090E08058910964E0880F991F6A95E1F781
:10033000D5C08091600087FF02C0805803C0902F15
:10034000981B892F9091630097FF03C040E8490FE5
:1003500002C0402F491B481708F4482F2091610024
:1003600027FF02C0205803C0802F821B282F8091B6
:10037000680087FF03C030E8380F02C0302F381BF9
:10038000413438F4321708F4322F3134D8F5D11013
:1003900039C0892F90E080589109F4E0880F991FA7
:1003A000FA95E1F7BE01E8D06A5880E0E3DE80917B
:1003B000600090E08058910961E170E0CCD0BE010E
:1003C000DBD06A5881E0D6DE8091630090E08058EF
:1003D0009109A4E0880F991FAA95E1F7BE01CCD03E
:1003E0006A5880E0FEDE8091600090E080589109BC
:1003F00061E170E0B0D0BE01BFD06A5881E0F1DEAB
:10040000D12C71C090E08058910974E0880F991F39
:100410007A95E1F7BE01B0D06A5880E0ABDE8091FA
:10042000610090E08058910961E170E094D0BE01D4
:10043000A3D06A5881E09EDE8091680090E08058E9
:100440009109E4E0880F991FEA95E1F7BE0194D085
:100450006A5880E0C6DE8091610090E08058910982
:1004600061E170E078D0BE0187D06A5881E0B9DEE2
:10047000DD24D39438C08091680090E080589109C1
:1004800024E0880F991F2A95E1F7BE0175D06A58BC
:1004900080E070DE8091610090E08058910961E118
:1004A00070E059D0BE0168D06A5881E063DE809167
:1004B000630090E08058910934E0880F991F3A95C5
:1004C000E1F7BE0159D06A5880E08BDE8091600070
:1004D00090E08058910961E170E03DD0BE014CD0C0
:1004E0006A5881E07EDE809165001123C1F0909111
:1004F000670094FD03C01092640008C097FD03C01C
:10050000F092640003C095FFE092640083FD02C096
:1005100080E401C080E096FD07C0806805C083FDCF
:1005200002C080E201C080E080936900111107C021
:10053000809167008C718C3111F0D89803C0D89AE3
:10054000111107C0809167008374833411F0D9982A
:10055000ACCED99AAACE0024552704C0080E591F44
:10056000880F991F009729F076956795B8F3710564
:10057000B9F7802D952F089597FB072E16F4009458
:1005800006D077FD08D00BD007FC05D03EF490953F
:1005900081959F4F0895709561957F4F0895AA1B8F
:1005A000BB1B51E107C0AA1FBB1FA617B70710F05E
:1005B000A61BB70B881F991F5A95A9F78095909590
:0A05C000BC01CD010895F894FFCFAF
:00000001FF
