:1000000012C021C020C01FC01EC01DC01CC01BC00C
:100010001AC019C018C017C016C015C014C013C02C
:1000200012C011C010C011241FBECFE5D2E0DEBF48
:10003000CDBF20E0A0E6B0E001C01D92AA36B20715
:10004000E1F7E4D07EC2DCCF98E087FF02C0C09A1F
:1000500001C0C098C29822E02A95F1F700C0880F2D
:10006000C29A915091F70895282F98E080E08695E4
:1000700020FF02C0C09A01C0C098C29832E03A95F1
:10008000F1F700C0B19980682695C29A915079F72E
:1000900095E39A95F1F70000C09A0895C59881E01C
:1000A000E3DF83E4E1DF80E0DFDF81E0DDDF80E0CC
:1000B000DBDFC59A0895C59881E0D6DF83E4D4DFFD
:1000C00080E0D2DF80E0D0DF8AE5CEDF8AE5CCDFDA
:1000D0008AE5CADF8AE5C8DF8AE5C6DFC59A0895E2
:1000E000C59881E0C1DF84E4BFDF80E0BDDF81E04F
:1000F000BBDF83E0B9DF80E0B7DF80E0B5DF80E021
:10010000B3DF80E0B1DFC59A0895C59881E0ACDF28
:1001100082E4AADF8093690080E0A6DF8091690015
:10012000807F8037C9F480E09FDF8093650080E0A6
:100130009BDF8093670080E097DF8093630080E01F
:1001400093DF8093600080E08FDF8093680080E021
:100150008BDF809361000CC080E086DF80E084DF6D
:1001600080E082DF80E080DF80E07EDF80E07CDF97
:10017000C59A0895CF93DF931F92CDB7DEB7C3988A
:100180008F5E698361DF6981862F5EDFC39A0F907E
:10019000DF91CF91089510926900809169008337B3
:1001A000E9F062E381E0E6DF79DF8FEC97E0019729
:1001B000F1F700C0000094DF8FE19EE40197F1F7B2
:1001C00000C0000078DF8FE19EE40197F1F700C0E6
:1001D00000009BDF60E581E0CDDFDFCF66E981E0F5
:1001E000C9CFCF93DF931F92CDB7DEB7C4988F5E90
:1001F00069832ADF6981862F27DFC49A0F90DF91F8
:10020000CF910895861708F4862F0895B89ABA9A60
:10021000BB9ABC9ABD9AD09AD19AD29AD39AB998DD
:10022000C19AC39AC49AC59AD89AD99ADA9ADB9A8B
:10023000C29A109264008FEF8093650080936700EC
:10024000AADFD12CFF24F394C4E1D0E000E8B2E0AF
:10025000EB2E5BDF1091650011701F25809164000B
:10026000813009F4DCC0C8F1823009F010C18091FE
:10027000630090E08058910944E0880F991F4A95E7
:10028000E1F7BE0137D16A5880E074DF80916000E9
:1002900090E08058910961E170E01BD1BE012AD144
:1002A0006A5881E067DF8091680090E0805891098A
:1002B00054E0880F991F5A95E1F7BE011BD16A5887
:1002C00080E08FDF8091610090E08058910964E0C8
:1002D000880F991F6A95E1F7D5C08091600087FF6C
:1002E00002C0805803C0902F981B892F9091630003
:1002F00097FF03C040E8490F02C0402F491B481731
:1003000008F4482F2091610027FF02C0205803C045
:10031000802F821B282F8091680087FF03C030E860
:10032000380F02C0302F381B413438F4321708F42C
:10033000322F3134D8F5D11039C0892F90E0805850
:100340009109F4E0880F991FFA95E1F7BE01D2D028
:100350006A5880E00FDF8091600090E0805891093A
:1003600061E170E0B6D0BE01C5D06A5881E002DF1D
:100370008091630090E080589109A4E0880F991F54
:10038000AA95E1F7BE01B6D06A5880E02ADF8091D5
:10039000600090E08058910961E170E09AD0BE0160
:1003A000A9D06A5881E01DDFD12C71C090E080583F
:1003B000910974E0880F991F7A95E1F7BE019AD0F0
:1003C0006A5880E0D7DE8091610090E08058910902
:1003D00061E170E07ED0BE018DD06A5881E0CADE56
:1003E0008091680090E080589109E4E0880F991F9F
:1003F000EA95E1F7BE017ED06A5880E0F2DE809196
:10040000610090E08058910961E170E062D0BE0126
:1004100071D06A5881E0E5DEDD24D39438C0809144
:10042000680090E08058910924E0880F991F2A9570
:10043000E1F7BE015FD06A5880E09CDE80916100E8
:1004400090E08058910961E170E043D0BE0152D044
:100450006A5881E08FDE8091630090E080589109B6
:1004600034E0880F991F3A95E1F7BE0143D06A58EE
:1004700080E0B7DE8091600090E08058910961E1F2
:1004800070E027D0BE0136D06A5881E0AADE8091A4
:1004900067001123C9F084FD03C01092640008C0F6
:1004A00087FD03C0F092640003C085FFE092640002
:1004B000D89A111107C0809167008374833411F0BA
:1004C000D998C7CED99AC5CE8C718C3189F3D8987A
:1004D000F2CF0024552704C0080E591F880F991F1A
:1004E000009729F076956795B8F37105B9F7802DD7
:1004F000952F089597FB072E16F4009406D077FDEC
:1005000008D00BD007FC05D03EF4909581959F4F05
:100510000895709561957F4F0895AA1BBB1B51E10B
:1005200007C0AA1FBB1FA617B70710F0A61BB70B63
:10053000881F991F5A95A9F780959095BC01CD0108
:060540000895F894FFCFBE
:00000001FF
