:1000000012C021C003C11FC01EC01DC01CC01BC028
:100010001AC019C018C017C016C015C014C013C02C
:1000200012C011C010C011241FBECFE5D2E0DEBF48
:10003000CDBF20E0A0E6B0E001C01D92AB36B20714
:10004000E1F7FCD0B1C2DCCF98E087FF02C0C09AD4
:1000500001C0C098C29822E02A95F1F700C0880F2D
:10006000C29A915091F70895282F98E080E08695E4
:1000700020FF02C0C09A01C0C098C29832E03A95F1
:10008000F1F700C0B19980682695C29A915079F72E
:1000900095E39A95F1F70000C09A0895C59881E01C
:1000A000E3DF83E4E1DF80E0DFDF81E0DDDF80E0CC
:1000B000DBDFC59A0895C59881E0D6DF83E4D4DFFD
:1000C00080E0D2DF80E0D0DF8AE5CEDF8AE5CCDFDA
:1000D0008AE5CADF8AE5C8DF8AE5C6DFC59A0895E2
:1000E000C59881E0C1DF84E4BFDF80E0BDDF81E04F
:1000F000BBDF83E0B9DF80E0B7DF80E0B5DF80E021
:10010000B3DF80E0B1DFC59A0895C59881E0ACDF28
:1001100082E4AADF80936A0080E0A6DF80916A0013
:10012000807F8037C9F480E09FDF8093650080E0A6
:100130009BDF8093670080E097DF8093630080E01F
:1001400093DF8093600080E08FDF8093680080E021
:100150008BDF809361000CC080E086DF80E084DF6D
:1001600080E082DF80E080DF80E07EDF80E07CDF97
:10017000C59A0895CF93DF931F92CDB7DEB7C3988A
:100180008F5E698361DF6981862F5EDFC39A0F907E
:10019000DF91CF91089510926A0080916A008337B1
:1001A000E9F062E381E0E6DF79DF8FEC97E0019729
:1001B000F1F700C0000094DF8FE19EE40197F1F7B2
:1001C00000C0000078DF8FE19EE40197F1F700C0E6
:1001D00000009BDF60E581E0CDDFDFCF66E981E0F5
:1001E000C9CFCF93DF931F92CDB7DEB7C4988F5E90
:1001F00069832ADF6981862F27DFC49A0F90DF91F8
:10020000CF910895861708F4862F08951F920F92B4
:100210000FB60F9211248F939F93CC9905C09AB378
:1002200080916900892B02C08AB38F718ABB9F912C
:100230008F910F900FBE0F901F901895B89ABA9A91
:10024000BB9ABC9ABD9AD09AD19AD29AD39AB998AD
:10025000C19AD498DC9AD598D698D798DD98DE982C
:10026000DF98C39AC49AC59AC698D89AD99ADA9A46
:10027000DB9AC29A10926400109269008FEF80930B
:100280006500809367001092660083B5806183BD2E
:100290008BB780628BBF78947EDFD12CFF24F394E0
:1002A000C4E1D0E000E882E0E82E2FDF1091650085
:1002B00011701F2580916400813009F4D1C0B0F124
:1002C000823009F001C18091630090E0805891096B
:1002D00062E170E031D1BE0140D16E5780E04ADF6B
:1002E0008091600090E08058910962E170E024D133
:1002F000BE0133D1605881E03DDF8091680090E01D
:100300008058910962E170E017D1BE0126D16E5785
:1003100080E067DF8091610090E08058910962E1A0
:1003200070E00AD1BE0119D16E57CCC09091600027
:1003300097FF02C0905803C0802F891B982F2091EF
:10034000630027FF03C040E8420F02C0402F421B5A
:10035000491708F4492F9091610097FF02C0905807
:1003600003C0802F891B982F8091680087FF03C0EE
:1003700030E8380F02C0302F381B413438F43917B9
:1003800008F4392F3134B8F5D11035C0822F90E000
:100390008058910962E170E0CFD0BE01DED06E5787
:1003A00080E0E8DE8091600090E08058910962E191
:1003B00070E0C2D0BE01D1D0605881E0DBDE809118
:1003C000630090E08058910962E170E0B5D0BE0111
:1003D000C4D06E5780E005DF8091600090E08058C7
:1003E000910962E170E0A8D0BE01B7D0605881E009
:1003F000F8DED12C69C090E08058910962E170E08C
:100400009BD0BE01AAD06E5780E0B4DE809161001F
:1004100090E08058910962E170E08ED0BE019DD0DD
:10042000605881E0A7DE8091680090E080589109D3
:1004300062E170E081D0BE0190D06E5780E0D1DEE5
:100440008091610090E08058910962E170E074D081
:10045000BE0183D0605881E0C4DEDD24D39434C073
:100460008091680090E08058910962E170E064D06A
:10047000BE0173D06E5780E07DDE8091610090E018
:100480008058910962E170E057D0BE0166D0605893
:1004900081E070DE8091630090E08058910962E114
:1004A00070E04AD0BE0159D06E5780E09ADE80914C
:1004B000600090E08058910962E170E03DD0BE019B
:1004C0004CD0605881E08DDE809165001123C1F031
:1004D0009091670094FD03C01092640008C097FDDE
:1004E00003C0F092640003C095FFE092640083FDB6
:1004F00002C080E401C080E096FD07C0806805C0AE
:1005000083FD02C080E201C080E080936900111188
:1005100007C0809167008C718C3111F0D89803C0AE
:10052000D89A111107C0809167008374833411F049
:10053000D998BBCED99AB9CE0024552704C0080E4D
:10054000591F880F991F009729F076956795B8F382
:100550007105B9F7802D952F089597FB072E16F496
:10056000009406D077FD08D00BD007FC05D03EF4F0
:10057000909581959F4F0895709561957F4F08954F
:10058000AA1BBB1B51E107C0AA1FBB1FA617B707B9
:1005900010F0A61BB70B881F991F5A95A9F78095D5
:0C05A0009095BC01CD010895F894FFCFA8
:00000001FF
